S01100005350492D736C6176652E73726563DF
S113000033C0000039C0000037C0000035C0000014
S113001033C0000031C000002FC000002DC000001C
S11300202BC0000029C0000027C0000025C000002C
S113003023C0000021C000001FC000001DC000003C
S11300401BC0000019C0000017C0000015C000004C
S113005013C0000011C000000FC000000DC000005C
S11300600BC0000009C0000011241FBECFEFD8E070
S1130070DEBFCDBF10D019C0C3CF88E084B98CB522
S113008080648CBD08958EBD0DB407FEFDCF8EB582
S11300900895559A0895FDDFF0DF8FEFF4DF88238C
S11100A011F05D9AFACF5D98F8CFF894FFCF77
S9030000FC
