S01200005350492D6D61737465722E737265636D
S113000033C0000039C0000037C0000035C0000014
S113001033C0000031C000002FC000002DC000001C
S11300202BC0000029C0000027C0000025C000002C
S113003023C0000021C000001FC000001DC000003C
S11300401BC0000019C0000017C0000015C000004C
S113005013C0000011C000000FC000000DC000005C
S11300600BC0000009C0000011241FBECFEFD8E070
S1130070DEBFCDBF19D01CC0C3CF539A5B9808957F
S11300808EBD0DB407FEFDCF8EB5089595E39A9508
S1130090F1F700002A9890E49A95F1F7F1DF80E4F3
S11300A08A95F1F72A9A0895E8DF81E0EFDFFDCF22
S10700B0F894FFCFEE
S9030000FC
